:1000000039EF00F00000000000EF00F000000000F9
:0A0010000000000000000000F3D71C
:10001C008D701F0E0B6E710E0C6E1E0E0D6E0D2E56
:10002C00FED70C2EFCD70B2EFAD700008D721F0EAC
:10003C000B6E710E0C6E1E0E0D6E0D2EFED70C2E51
:10004C00FCD70B2EFAD700008D741F0E0B6E710EA1
:10005C000C6E1E0E0D6E0D2EFED70C2EFCD70B2E1D
:06006C00FAD700001200AB
:10007200926A966A896A8D6A89781F0E0B6E710E72
:100082000C6E1E0E0D6E0D2EFED70C2EFCD70B2EF7
:0A009200FAD70000C2DFF0D7FFD755
:020000040030CA
:0E00000023235F3CFFD381FF0FC00FE00F40B2
:00000001FF
